:100000000C9434000C943E000C943E000C943E0082
:100010000C943E000C943E000C943E000C943E0068
:100020000C943E000C943E000C943E000C943E0058
:100030000C943E000C943E000C943E000C943E0048
:100040000C943E000C943E000C943E000C943E0038
:100050000C943E000C943E000C943E000C943E0028
:100060000C943E000C943E0011241FBECFEFD8E04C
:10007000DEBFCDBF0E9464000C9474000C9400009D
:1000800001E10093B80004E80093BC00089504EA7D
:100090000093BC008091BC0087FFFCCF0895AA0F9D
:1000A000A093BB0004EA0093BC008091BC0087FFD2
:1000B000FCCF0895A093BB0004E80093BC0080919E
:1000C000BC0087FFFCCF0895529A5A9A0E944000C4
:1000D0000E944700A7E2B0E00E944F00A0E0B0E01D
:0C00E0000E945A005A98FFCFF894FFCFFE
:00000001FF
